{
  "_format": "hh-sol-artifact-1",
  "contractName": "FileStorage",
  "sourceName": "contracts/filestorage.sol",
  "abi": [
    {
      "inputs": [
        {
          "internalType": "string",
          "name": "",
          "type": "string"
        }
      ],
      "name": "fileHashToFile",
      "outputs": [
        {
          "internalType": "string",
          "name": "fileHash",
          "type": "string"
        },
        {
          "internalType": "string",
          "name": "ipfsHash",
          "type": "string"
        },
        {
          "internalType": "string",
          "name": "fileName",
          "type": "string"
        },
        {
          "internalType": "uint256",
          "name": "timestamp",
          "type": "uint256"
        }
      ],
      "stateMutability": "view",
      "type": "function"
    },
    {
      "inputs": [
        {
          "internalType": "uint256",
          "name": "_index",
          "type": "uint256"
        }
      ],
      "name": "getFile",
      "outputs": [
        {
          "internalType": "string",
          "name": "",
          "type": "string"
        },
        {
          "internalType": "string",
          "name": "",
          "type": "string"
        },
        {
          "internalType": "string",
          "name": "",
          "type": "string"
        },
        {
          "internalType": "uint256",
          "name": "",
          "type": "uint256"
        }
      ],
      "stateMutability": "view",
      "type": "function"
    },
    {
      "inputs": [
        {
          "internalType": "string",
          "name": "_fileHash",
          "type": "string"
        }
      ],
      "name": "getFileByHash",
      "outputs": [
        {
          "internalType": "string",
          "name": "",
          "type": "string"
        },
        {
          "internalType": "string",
          "name": "",
          "type": "string"
        },
        {
          "internalType": "string",
          "name": "",
          "type": "string"
        },
        {
          "internalType": "uint256",
          "name": "",
          "type": "uint256"
        }
      ],
      "stateMutability": "view",
      "type": "function"
    },
    {
      "inputs": [],
      "name": "getUserFileCount",
      "outputs": [
        {
          "internalType": "uint256",
          "name": "",
          "type": "uint256"
        }
      ],
      "stateMutability": "view",
      "type": "function"
    },
    {
      "inputs": [
        {
          "internalType": "string",
          "name": "_fileHash",
          "type": "string"
        },
        {
          "internalType": "string",
          "name": "_ipfsHash",
          "type": "string"
        },
        {
          "internalType": "string",
          "name": "_fileName",
          "type": "string"
        }
      ],
      "name": "storeFile",
      "outputs": [],
      "stateMutability": "nonpayable",
      "type": "function"
    },
    {
      "inputs": [
        {
          "internalType": "address",
          "name": "",
          "type": "address"
        },
        {
          "internalType": "uint256",
          "name": "",
          "type": "uint256"
        }
      ],
      "name": "userFiles",
      "outputs": [
        {
          "internalType": "string",
          "name": "fileHash",
          "type": "string"
        },
        {
          "internalType": "string",
          "name": "ipfsHash",
          "type": "string"
        },
        {
          "internalType": "string",
          "name": "fileName",
          "type": "string"
        },
        {
          "internalType": "uint256",
          "name": "timestamp",
          "type": "uint256"
        }
      ],
      "stateMutability": "view",
      "type": "function"
    }
  ],
  "bytecode": "0x608060405234801561001057600080fd5b50611295806100206000396000f3fe608060405234801561001057600080fd5b50600436106100625760003560e01c80632bfda31314610067578063560be5c01461009a578063718f38a6146100cd5780637dd77d2b14610100578063cecaf69e1461011c578063fe8712e71461014f575b600080fd5b610081600480360381019061007c9190610e9c565b61016d565b6040516100919493929190610fd5565b60405180910390f35b6100b460048036038101906100af9190610dc4565b61046e565b6040516100c49493929190610fd5565b60405180910390f35b6100e760048036038101906100e29190610d88565b61064c565b6040516100f79493929190610fd5565b60405180910390f35b61011a60048036038101906101159190610e05565b610831565b005b61013660048036038101906101319190610dc4565b6109aa565b6040516101469493929190610fd5565b60405180910390f35b610157610c0a565b604051610164919061106f565b60405180910390f35b606080606060008060003373ffffffffffffffffffffffffffffffffffffffff1673ffffffffffffffffffffffffffffffffffffffff1681526020019081526020016000208054905085106101f7576040517f08c379a00000000000000000000000000000000000000000000000000000000081526004016101ee9061102f565b60405180910390fd5b60008060003373ffffffffffffffffffffffffffffffffffffffff1673ffffffffffffffffffffffffffffffffffffffff168152602001908152602001600020868154811061026f577f4e487b7100000000000000000000000000000000000000000000000000000000600052603260045260246000fd5b906000526020600020906004020160405180608001604052908160008201805461029890611190565b80601f01602080910402602001604051908101604052809291908181526020018280546102c490611190565b80156103115780601f106102e657610100808354040283529160200191610311565b820191906000526020600020905b8154815290600101906020018083116102f457829003601f168201915b5050505050815260200160018201805461032a90611190565b80601f016020809104026020016040519081016040528092919081815260200182805461035690611190565b80156103a35780601f10610378576101008083540402835291602001916103a3565b820191906000526020600020905b81548152906001019060200180831161038657829003601f168201915b505050505081526020016002820180546103bc90611190565b80601f01602080910402602001604051908101604052809291908181526020018280546103e890611190565b80156104355780601f1061040a57610100808354040283529160200191610435565b820191906000526020600020905b81548152906001019060200180831161041857829003601f168201915b50505050508152602001600382015481525050905080600001518160200151826040015183606001519450945094509450509193509193565b6001818051602081018201805184825260208301602085012081835280955050505050506000915090508060000180546104a790611190565b80601f01602080910402602001604051908101604052809291908181526020018280546104d390611190565b80156105205780601f106104f557610100808354040283529160200191610520565b820191906000526020600020905b81548152906001019060200180831161050357829003601f168201915b50505050509080600101805461053590611190565b80601f016020809104026020016040519081016040528092919081815260200182805461056190611190565b80156105ae5780601f10610583576101008083540402835291602001916105ae565b820191906000526020600020905b81548152906001019060200180831161059157829003601f168201915b5050505050908060020180546105c390611190565b80601f01602080910402602001604051908101604052809291908181526020018280546105ef90611190565b801561063c5780601f106106115761010080835404028352916020019161063c565b820191906000526020600020905b81548152906001019060200180831161061f57829003601f168201915b5050505050908060030154905084565b6000602052816000526040600020818154811061066857600080fd5b90600052602060002090600402016000915091505080600001805461068c90611190565b80601f01602080910402602001604051908101604052809291908181526020018280546106b890611190565b80156107055780601f106106da57610100808354040283529160200191610705565b820191906000526020600020905b8154815290600101906020018083116106e857829003601f168201915b50505050509080600101805461071a90611190565b80601f016020809104026020016040519081016040528092919081815260200182805461074690611190565b80156107935780601f1061076857610100808354040283529160200191610793565b820191906000526020600020905b81548152906001019060200180831161077657829003601f168201915b5050505050908060020180546107a890611190565b80601f01602080910402602001604051908101604052809291908181526020018280546107d490611190565b80156108215780601f106107f657610100808354040283529160200191610821565b820191906000526020600020905b81548152906001019060200180831161080457829003601f168201915b5050505050908060030154905084565b600060405180608001604052808581526020018481526020018381526020014281525090506000803373ffffffffffffffffffffffffffffffffffffffff1673ffffffffffffffffffffffffffffffffffffffff16815260200190815260200160002081908060018154018082558091505060019003906000526020600020906004020160009091909190915060008201518160000190805190602001906108da929190610c53565b5060208201518160010190805190602001906108f7929190610c53565b506040820151816002019080519060200190610914929190610c53565b50606082015181600301555050806001856040516109329190610fbe565b9081526020016040518091039020600082015181600001908051906020019061095c929190610c53565b506020820151816001019080519060200190610979929190610c53565b506040820151816002019080519060200190610996929190610c53565b506060820151816003015590505050505050565b60608060606000806001866040516109c29190610fbe565b90815260200160405180910390206040518060800160405290816000820180546109eb90611190565b80601f0160208091040260200160405190810160405280929190818152602001828054610a1790611190565b8015610a645780601f10610a3957610100808354040283529160200191610a64565b820191906000526020600020905b815481529060010190602001808311610a4757829003601f168201915b50505050508152602001600182018054610a7d90611190565b80601f0160208091040260200160405190810160405280929190818152602001828054610aa990611190565b8015610af65780601f10610acb57610100808354040283529160200191610af6565b820191906000526020600020905b815481529060010190602001808311610ad957829003601f168201915b50505050508152602001600282018054610b0f90611190565b80601f0160208091040260200160405190810160405280929190818152602001828054610b3b90611190565b8015610b885780601f10610b5d57610100808354040283529160200191610b88565b820191906000526020600020905b815481529060010190602001808311610b6b57829003601f168201915b50505050508152602001600382015481525050905060008160000151511415610be6576040517f08c379a0000000000000000000000000000000000000000000000000000000008152600401610bdd9061104f565b60405180910390fd5b80600001518160200151826040015183606001519450945094509450509193509193565b60008060003373ffffffffffffffffffffffffffffffffffffffff1673ffffffffffffffffffffffffffffffffffffffff16815260200190815260200160002080549050905090565b828054610c5f90611190565b90600052602060002090601f016020900481019282610c815760008555610cc8565b82601f10610c9a57805160ff1916838001178555610cc8565b82800160010185558215610cc8579182015b82811115610cc7578251825591602001919060010190610cac565b5b509050610cd59190610cd9565b5090565b5b80821115610cf2576000816000905550600101610cda565b5090565b6000610d09610d04846110bb565b61108a565b905082815260208101848484011115610d2157600080fd5b610d2c84828561114e565b509392505050565b600081359050610d4381611231565b92915050565b600082601f830112610d5a57600080fd5b8135610d6a848260208601610cf6565b91505092915050565b600081359050610d8281611248565b92915050565b60008060408385031215610d9b57600080fd5b6000610da985828601610d34565b9250506020610dba85828601610d73565b9150509250929050565b600060208284031215610dd657600080fd5b600082013567ffffffffffffffff811115610df057600080fd5b610dfc84828501610d49565b91505092915050565b600080600060608486031215610e1a57600080fd5b600084013567ffffffffffffffff811115610e3457600080fd5b610e4086828701610d49565b935050602084013567ffffffffffffffff811115610e5d57600080fd5b610e6986828701610d49565b925050604084013567ffffffffffffffff811115610e8657600080fd5b610e9286828701610d49565b9150509250925092565b600060208284031215610eae57600080fd5b6000610ebc84828501610d73565b91505092915050565b6000610ed0826110eb565b610eda81856110f6565b9350610eea81856020860161115d565b610ef381611220565b840191505092915050565b6000610f09826110eb565b610f138185611107565b9350610f2381856020860161115d565b80840191505092915050565b6000610f3c6013836110f6565b91507f496e76616c69642066696c6520696e6465782e000000000000000000000000006000830152602082019050919050565b6000610f7c600f836110f6565b91507f46696c65206e6f7420666f756e642e00000000000000000000000000000000006000830152602082019050919050565b610fb881611144565b82525050565b6000610fca8284610efe565b915081905092915050565b60006080820190508181036000830152610fef8187610ec5565b905081810360208301526110038186610ec5565b905081810360408301526110178185610ec5565b90506110266060830184610faf565b95945050505050565b6000602082019050818103600083015261104881610f2f565b9050919050565b6000602082019050818103600083015261106881610f6f565b9050919050565b60006020820190506110846000830184610faf565b92915050565b6000604051905081810181811067ffffffffffffffff821117156110b1576110b06111f1565b5b8060405250919050565b600067ffffffffffffffff8211156110d6576110d56111f1565b5b601f19601f8301169050602081019050919050565b600081519050919050565b600082825260208201905092915050565b600081905092915050565b600061111d82611124565b9050919050565b600073ffffffffffffffffffffffffffffffffffffffff82169050919050565b6000819050919050565b82818337600083830152505050565b60005b8381101561117b578082015181840152602081019050611160565b8381111561118a576000848401525b50505050565b600060028204905060018216806111a857607f821691505b602082108114156111bc576111bb6111c2565b5b50919050565b7f4e487b7100000000000000000000000000000000000000000000000000000000600052602260045260246000fd5b7f4e487b7100000000000000000000000000000000000000000000000000000000600052604160045260246000fd5b6000601f19601f8301169050919050565b61123a81611112565b811461124557600080fd5b50565b61125181611144565b811461125c57600080fd5b5056fea26469706673582212207cb4811c2b89dfcb6d0bccd12e45eeab66f4bc79ff40b8204a95f824956bb53964736f6c63430008000033",
  "linkReferences": {},
  "deployedLinkReferences": {}
}